:020000040000FA
:100000008316FF3086000030850083128501061CB0
:10001000062812288501061C0A2808001228861CBA
:1000200008003D280A200F20061D122801308500F7
:10003000861D12281B282220222001308500061E42
:100040001B282928023085004220013085004220EB
:1000500008002C202C202C20063085004220053062
:100060008500422034280800861E3428013085008F
:100070000F20422000308500062801308500861EB2
:100080003D28062800308C0000308D00640064009C
:0C0090008D0B46288C0B44284D280800DE
:02400E00F13F80
:00000001FF
